{
  "contractName": "PatientManagement",
  "abi": [
    {
      "inputs": [],
      "stateMutability": "nonpayable",
      "type": "constructor"
    },
    {
      "inputs": [
        {
          "internalType": "uint256",
          "name": "",
          "type": "uint256"
        }
      ],
      "name": "adminAddresses",
      "outputs": [
        {
          "internalType": "address",
          "name": "",
          "type": "address"
        }
      ],
      "stateMutability": "view",
      "type": "function",
      "constant": true
    },
    {
      "inputs": [],
      "name": "adminCount",
      "outputs": [
        {
          "internalType": "uint256",
          "name": "",
          "type": "uint256"
        }
      ],
      "stateMutability": "view",
      "type": "function",
      "constant": true
    },
    {
      "inputs": [
        {
          "internalType": "address",
          "name": "",
          "type": "address"
        }
      ],
      "name": "admins",
      "outputs": [
        {
          "internalType": "uint256",
          "name": "id",
          "type": "uint256"
        },
        {
          "internalType": "string",
          "name": "name",
          "type": "string"
        }
      ],
      "stateMutability": "view",
      "type": "function",
      "constant": true
    },
    {
      "inputs": [
        {
          "internalType": "uint256",
          "name": "",
          "type": "uint256"
        }
      ],
      "name": "doctorAddresses",
      "outputs": [
        {
          "internalType": "address",
          "name": "",
          "type": "address"
        }
      ],
      "stateMutability": "view",
      "type": "function",
      "constant": true
    },
    {
      "inputs": [],
      "name": "doctorCount",
      "outputs": [
        {
          "internalType": "uint256",
          "name": "",
          "type": "uint256"
        }
      ],
      "stateMutability": "view",
      "type": "function",
      "constant": true
    },
    {
      "inputs": [
        {
          "internalType": "address",
          "name": "",
          "type": "address"
        }
      ],
      "name": "doctors",
      "outputs": [
        {
          "internalType": "uint256",
          "name": "id",
          "type": "uint256"
        },
        {
          "internalType": "string",
          "name": "name",
          "type": "string"
        }
      ],
      "stateMutability": "view",
      "type": "function",
      "constant": true
    },
    {
      "inputs": [
        {
          "internalType": "uint256",
          "name": "",
          "type": "uint256"
        }
      ],
      "name": "patientAddresses",
      "outputs": [
        {
          "internalType": "address",
          "name": "",
          "type": "address"
        }
      ],
      "stateMutability": "view",
      "type": "function",
      "constant": true
    },
    {
      "inputs": [],
      "name": "patientCount",
      "outputs": [
        {
          "internalType": "uint256",
          "name": "",
          "type": "uint256"
        }
      ],
      "stateMutability": "view",
      "type": "function",
      "constant": true
    },
    {
      "inputs": [
        {
          "internalType": "address",
          "name": "",
          "type": "address"
        }
      ],
      "name": "patients",
      "outputs": [
        {
          "internalType": "uint256",
          "name": "id",
          "type": "uint256"
        },
        {
          "internalType": "uint256",
          "name": "age",
          "type": "uint256"
        },
        {
          "internalType": "string",
          "name": "name",
          "type": "string"
        },
        {
          "internalType": "string",
          "name": "gender",
          "type": "string"
        },
        {
          "internalType": "string",
          "name": "district",
          "type": "string"
        },
        {
          "internalType": "string",
          "name": "vaccineStatus",
          "type": "string"
        },
        {
          "internalType": "string",
          "name": "symptomsDetails",
          "type": "string"
        },
        {
          "internalType": "bool",
          "name": "isDead",
          "type": "bool"
        },
        {
          "internalType": "address",
          "name": "patientAddress",
          "type": "address"
        }
      ],
      "stateMutability": "view",
      "type": "function",
      "constant": true
    },
    {
      "inputs": [
        {
          "internalType": "uint256",
          "name": "",
          "type": "uint256"
        }
      ],
      "name": "timeSlots",
      "outputs": [
        {
          "internalType": "string",
          "name": "",
          "type": "string"
        }
      ],
      "stateMutability": "view",
      "type": "function",
      "constant": true
    },
    {
      "inputs": [
        {
          "internalType": "string",
          "name": "name",
          "type": "string"
        }
      ],
      "name": "registerAdmin",
      "outputs": [],
      "stateMutability": "nonpayable",
      "type": "function"
    },
    {
      "inputs": [
        {
          "internalType": "uint256",
          "name": "age",
          "type": "uint256"
        },
        {
          "internalType": "string",
          "name": "name",
          "type": "string"
        },
        {
          "internalType": "string",
          "name": "gender",
          "type": "string"
        },
        {
          "internalType": "string",
          "name": "district",
          "type": "string"
        },
        {
          "internalType": "string",
          "name": "symptomsDetails",
          "type": "string"
        }
      ],
      "name": "registerPatient",
      "outputs": [],
      "stateMutability": "nonpayable",
      "type": "function"
    },
    {
      "inputs": [
        {
          "internalType": "string",
          "name": "name",
          "type": "string"
        }
      ],
      "name": "registerDoctor",
      "outputs": [],
      "stateMutability": "nonpayable",
      "type": "function"
    },
    {
      "inputs": [
        {
          "internalType": "address",
          "name": "patientAddress",
          "type": "address"
        },
        {
          "internalType": "string",
          "name": "vaccineStatus",
          "type": "string"
        },
        {
          "internalType": "bool",
          "name": "isDead",
          "type": "bool"
        }
      ],
      "name": "updatePatientData",
      "outputs": [],
      "stateMutability": "nonpayable",
      "type": "function"
    },
    {
      "inputs": [
        {
          "internalType": "address",
          "name": "doctorAddress",
          "type": "address"
        },
        {
          "internalType": "address",
          "name": "adminAddress",
          "type": "address"
        },
        {
          "internalType": "string",
          "name": "timeSlot",
          "type": "string"
        }
      ],
      "name": "bookAppointment",
      "outputs": [],
      "stateMutability": "payable",
      "type": "function",
      "payable": true
    },
    {
      "inputs": [
        {
          "internalType": "address",
          "name": "doctorAddress",
          "type": "address"
        }
      ],
      "name": "viewAppointmentSchedule",
      "outputs": [
        {
          "internalType": "bool[]",
          "name": "",
          "type": "bool[]"
        }
      ],
      "stateMutability": "view",
      "type": "function",
      "constant": true
    },
    {
      "inputs": [
        {
          "internalType": "address",
          "name": "patientAddress",
          "type": "address"
        }
      ],
      "name": "getCovidTrendData",
      "outputs": [
        {
          "internalType": "uint256",
          "name": "",
          "type": "uint256"
        },
        {
          "internalType": "string",
          "name": "",
          "type": "string"
        }
      ],
      "stateMutability": "view",
      "type": "function",
      "constant": true
    }
  ],
  "bytecode": "0x60806040526040518060c001604052806040518060400160405280601181526020017f343a303020504d202d20343a313020504d00000000000000000000000000000081525081526020016040518060400160405280601181526020017f343a313020504d202d20343a323020504d00000000000000000000000000000081525081526020016040518060400160405280601181526020017f343a323020504d202d20343a333020504d00000000000000000000000000000081525081526020016040518060400160405280601181526020017f343a333020504d202d20343a343020504d00000000000000000000000000000081525081526020016040518060400160405280601181526020017f343a343020504d202d20343a353020504d00000000000000000000000000000081525081526020016040518060400160405280601181526020017f343a353020504d202d20353a303020504d000000000000000000000000000000815250815250600a9060066200018192919062000334565b503480156200018f57600080fd5b506000730d2f38cd0f5cb5e52e8701e0378dfa958aa43cf59050600080815480929190620001bd906200045a565b9190505550604051806040016040528060005481526020016040518060400160405280601181526020017f436f6e7472616374204465706c6f796572000000000000000000000000000000815250815250600360008373ffffffffffffffffffffffffffffffffffffffff1673ffffffffffffffffffffffffffffffffffffffff1681526020019081526020016000206000820151816000015560208201518160010190816200026e919062000717565b509050506001600960008373ffffffffffffffffffffffffffffffffffffffff1673ffffffffffffffffffffffffffffffffffffffff16815260200190815260200160002060006101000a81548160ff0219169083151502179055506008819080600181540180825580915050600190039060005260206000200160009091909190916101000a81548173ffffffffffffffffffffffffffffffffffffffff021916908373ffffffffffffffffffffffffffffffffffffffff16021790555050620007fe565b82805482825590600052602060002090810192821562000381579160200282015b82811115620003805782518290816200036f919062000717565b509160200191906001019062000355565b5b50905062000390919062000394565b5090565b5b80821115620003b85760008181620003ae9190620003bc565b5060010162000395565b5090565b508054620003ca9062000510565b6000825580601f10620003de5750620003ff565b601f016020900490600052602060002090810190620003fe919062000402565b5b50565b5b808211156200041d57600081600090555060010162000403565b5090565b7f4e487b7100000000000000000000000000000000000000000000000000000000600052601160045260246000fd5b6000819050919050565b6000620004678262000450565b91507fffffffffffffffffffffffffffffffffffffffffffffffffffffffffffffffff82036200049c576200049b62000421565b5b600182019050919050565b600081519050919050565b7f4e487b7100000000000000000000000000000000000000000000000000000000600052604160045260246000fd5b7f4e487b7100000000000000000000000000000000000000000000000000000000600052602260045260246000fd5b600060028204905060018216806200052957607f821691505b6020821081036200053f576200053e620004e1565b5b50919050565b60008190508160005260206000209050919050565b60006020601f8301049050919050565b600082821b905092915050565b600060088302620005a97fffffffffffffffffffffffffffffffffffffffffffffffffffffffffffffffff826200056a565b620005b586836200056a565b95508019841693508086168417925050509392505050565b6000819050919050565b6000620005f8620005f2620005ec8462000450565b620005cd565b62000450565b9050919050565b6000819050919050565b6200061483620005d7565b6200062c6200062382620005ff565b84845462000577565b825550505050565b600090565b6200064362000634565b6200065081848462000609565b505050565b5b8181101562000678576200066c60008262000639565b60018101905062000656565b5050565b601f821115620006c757620006918162000545565b6200069c846200055a565b81016020851015620006ac578190505b620006c4620006bb856200055a565b83018262000655565b50505b505050565b600082821c905092915050565b6000620006ec60001984600802620006cc565b1980831691505092915050565b6000620007078383620006d9565b9150826002028217905092915050565b6200072282620004a7565b67ffffffffffffffff8111156200073e576200073d620004b2565b5b6200074a825462000510565b620007578282856200067c565b600060209050601f8311600181146200078f57600084156200077a578287015190505b620007868582620006f9565b865550620007f6565b601f1984166200079f8662000545565b60005b82811015620007c957848901518255600182019150602085019450602081019050620007a2565b86831015620007e95784890151620007e5601f891682620006d9565b8355505b6001600288020188555050505b505050505050565b613407806200080e6000396000f3fe6080604052600436106100fe5760003560e01c806378522bc411610095578063a0303c4111610064578063a0303c4114610368578063a1ae095314610393578063a9583c22146103bc578063b40f1691146103fa578063ba44eecf14610437576100fe565b806378522bc4146102ae57806386e1c04f146102d95780638d66620e146103165780638f09ab5b1461033f576100fe565b8063429b62e5116100d1578063429b62e5146101d95780635090a1d61461021757806355045c821461023357806365a5a99814610270576100fe565b80630869cfbc1461010357806320ede3a2146101485780632b7832b3146101715780633ba51e7c1461019c575b600080fd5b34801561010f57600080fd5b5061012a600480360381019061012591906120f7565b610474565b60405161013f999897969594939291906121f7565b60405180910390f35b34801561015457600080fd5b5061016f600480360381019061016a91906123dc565b610797565b005b34801561017d57600080fd5b50610186610972565b6040516101939190612425565b60405180910390f35b3480156101a857600080fd5b506101c360048036038101906101be919061246c565b610978565b6040516101d09190612499565b60405180910390f35b3480156101e557600080fd5b5061020060048036038101906101fb91906120f7565b6109b7565b60405161020e9291906124b4565b60405180910390f35b610231600480360381019061022c91906124e4565b610a63565b005b34801561023f57600080fd5b5061025a600480360381019061025591906120f7565b610ec1565b6040516102679190612611565b60405180910390f35b34801561027c57600080fd5b50610297600480360381019061029291906120f7565b611144565b6040516102a59291906124b4565b60405180910390f35b3480156102ba57600080fd5b506102c36115a2565b6040516102d09190612425565b60405180910390f35b3480156102e557600080fd5b5061030060048036038101906102fb919061246c565b6115a8565b60405161030d9190612633565b60405180910390f35b34801561032257600080fd5b5061033d60048036038101906103389190612655565b611654565b005b34801561034b57600080fd5b50610366600480360381019061036191906123dc565b611977565b005b34801561037457600080fd5b5061037d611b73565b60405161038a9190612425565b60405180910390f35b34801561039f57600080fd5b506103ba60048036038101906103b5919061276c565b611b79565b005b3480156103c857600080fd5b506103e360048036038101906103de91906120f7565b611f5b565b6040516103f19291906124b4565b60405180910390f35b34801561040657600080fd5b50610421600480360381019061041c919061246c565b612007565b60405161042e9190612499565b60405180910390f35b34801561044357600080fd5b5061045e6004803603810190610459919061246c565b612046565b60405161046b9190612499565b60405180910390f35b60046020528060005260406000206000915090508060000154908060010154908060020180546104a39061280a565b80601f01602080910402602001604051908101604052809291908181526020018280546104cf9061280a565b801561051c5780601f106104f15761010080835404028352916020019161051c565b820191906000526020600020905b8154815290600101906020018083116104ff57829003601f168201915b5050505050908060030180546105319061280a565b80601f016020809104026020016040519081016040528092919081815260200182805461055d9061280a565b80156105aa5780601f1061057f576101008083540402835291602001916105aa565b820191906000526020600020905b81548152906001019060200180831161058d57829003601f168201915b5050505050908060040180546105bf9061280a565b80601f01602080910402602001604051908101604052809291908181526020018280546105eb9061280a565b80156106385780601f1061060d57610100808354040283529160200191610638565b820191906000526020600020905b81548152906001019060200180831161061b57829003601f168201915b50505050509080600501805461064d9061280a565b80601f01602080910402602001604051908101604052809291908181526020018280546106799061280a565b80156106c65780601f1061069b576101008083540402835291602001916106c6565b820191906000526020600020905b8154815290600101906020018083116106a957829003601f168201915b5050505050908060060180546106db9061280a565b80601f01602080910402602001604051908101604052809291908181526020018280546107079061280a565b80156107545780601f1061072957610100808354040283529160200191610754565b820191906000526020600020905b81548152906001019060200180831161073757829003601f168201915b5050505050908060070160009054906101000a900460ff16908060070160019054906101000a900473ffffffffffffffffffffffffffffffffffffffff16905089565b600960003373ffffffffffffffffffffffffffffffffffffffff1673ffffffffffffffffffffffffffffffffffffffff16815260200190815260200160002060009054906101000a900460ff1615610824576040517f08c379a000000000000000000000000000000000000000000000000000000000815260040161081b90612887565b60405180910390fd5b600080815480929190610836906128d6565b91905055506040518060400160405280600054815260200182815250600360003373ffffffffffffffffffffffffffffffffffffffff1673ffffffffffffffffffffffffffffffffffffffff1681526020019081526020016000206000820151816000015560208201518160010190816108b09190612aca565b509050506001600960003373ffffffffffffffffffffffffffffffffffffffff1673ffffffffffffffffffffffffffffffffffffffff16815260200190815260200160002060006101000a81548160ff0219169083151502179055506008339080600181540180825580915050600190039060005260206000200160009091909190916101000a81548173ffffffffffffffffffffffffffffffffffffffff021916908373ffffffffffffffffffffffffffffffffffffffff16021790555050565b60005481565b6007818154811061098857600080fd5b906000526020600020016000915054906101000a900473ffffffffffffffffffffffffffffffffffffffff1681565b60036020528060005260406000206000915090508060000154908060010180546109e09061280a565b80601f0160208091040260200160405190810160405280929190818152602001828054610a0c9061280a565b8015610a595780601f10610a2e57610100808354040283529160200191610a59565b820191906000526020600020905b815481529060010190602001808311610a3c57829003601f168201915b5050505050905082565b6000600460003373ffffffffffffffffffffffffffffffffffffffff1673ffffffffffffffffffffffffffffffffffffffff1681526020019081526020016000206000015411610ae8576040517f08c379a0000000000000000000000000000000000000000000000000000000008152600401610adf90612c0e565b60405180910390fd5b6000600560008573ffffffffffffffffffffffffffffffffffffffff1673ffffffffffffffffffffffffffffffffffffffff1681526020019081526020016000206000015411610b6d576040517f08c379a0000000000000000000000000000000000000000000000000000000008152600401610b6490612c7a565b60405180910390fd5b6000600360008473ffffffffffffffffffffffffffffffffffffffff1673ffffffffffffffffffffffffffffffffffffffff1681526020019081526020016000206000015411610bf2576040517f08c379a0000000000000000000000000000000000000000000000000000000008152600401610be990612ce6565b60405180910390fd5b662386f26fc10000341015610c3c576040517f08c379a0000000000000000000000000000000000000000000000000000000008152600401610c3390612d78565b60405180910390fd5b6000805b600a80549050811015610ca9578280519060200120600a8281548110610c6957610c68612d98565b5b90600052602060002001604051610c809190612e6a565b604051809103902003610c965760019150610ca9565b8080610ca1906128d6565b915050610c40565b5080610cea576040517f08c379a0000000000000000000000000000000000000000000000000000000008152600401610ce190612ecd565b60405180910390fd5b600073ffffffffffffffffffffffffffffffffffffffff16600560008673ffffffffffffffffffffffffffffffffffffffff1673ffffffffffffffffffffffffffffffffffffffff16815260200190815260200160002060020183604051610d529190612f29565b908152602001604051809103902060009054906101000a900473ffffffffffffffffffffffffffffffffffffffff1673ffffffffffffffffffffffffffffffffffffffff1614610dd7576040517f08c379a0000000000000000000000000000000000000000000000000000000008152600401610dce90612f8c565b60405180910390fd5b33600560008673ffffffffffffffffffffffffffffffffffffffff1673ffffffffffffffffffffffffffffffffffffffff16815260200190815260200160002060020183604051610e289190612f29565b908152602001604051809103902060006101000a81548173ffffffffffffffffffffffffffffffffffffffff021916908373ffffffffffffffffffffffffffffffffffffffff1602179055508273ffffffffffffffffffffffffffffffffffffffff166108fc349081150290604051600060405180830381858888f19350505050158015610eba573d6000803e3d6000fd5b5050505050565b6060600960003373ffffffffffffffffffffffffffffffffffffffff1673ffffffffffffffffffffffffffffffffffffffff16815260200190815260200160002060009054906101000a900460ff16610f4f576040517f08c379a0000000000000000000000000000000000000000000000000000000008152600401610f4690612ff8565b60405180910390fd5b6000600560008473ffffffffffffffffffffffffffffffffffffffff1673ffffffffffffffffffffffffffffffffffffffff1681526020019081526020016000206000015411610fd4576040517f08c379a0000000000000000000000000000000000000000000000000000000008152600401610fcb90612c7a565b60405180910390fd5b6000600a8054905067ffffffffffffffff811115610ff557610ff46122b1565b5b6040519080825280602002602001820160405280156110235781602001602082028036833780820191505090505b50905060005b600a8054905081101561113a57600073ffffffffffffffffffffffffffffffffffffffff16600560008673ffffffffffffffffffffffffffffffffffffffff1673ffffffffffffffffffffffffffffffffffffffff168152602001908152602001600020600201600a83815481106110a4576110a3612d98565b5b906000526020600020016040516110bb919061309b565b908152602001604051809103902060009054906101000a900473ffffffffffffffffffffffffffffffffffffffff1673ffffffffffffffffffffffffffffffffffffffff16141582828151811061111557611114612d98565b5b6020026020010190151590811515815250508080611132906128d6565b915050611029565b5080915050919050565b60006060600960003373ffffffffffffffffffffffffffffffffffffffff1673ffffffffffffffffffffffffffffffffffffffff16815260200190815260200160002060009054906101000a900460ff166111d4576040517f08c379a00000000000000000000000000000000000000000000000000000000081526004016111cb90612ff8565b60405180910390fd5b600060606000600460008773ffffffffffffffffffffffffffffffffffffffff1673ffffffffffffffffffffffffffffffffffffffff1681526020019081526020016000206040518061012001604052908160008201548152602001600182015481526020016002820180546112499061280a565b80601f01602080910402602001604051908101604052809291908181526020018280546112759061280a565b80156112c25780601f10611297576101008083540402835291602001916112c2565b820191906000526020600020905b8154815290600101906020018083116112a557829003601f168201915b505050505081526020016003820180546112db9061280a565b80601f01602080910402602001604051908101604052809291908181526020018280546113079061280a565b80156113545780601f1061132957610100808354040283529160200191611354565b820191906000526020600020905b81548152906001019060200180831161133757829003601f168201915b5050505050815260200160048201805461136d9061280a565b80601f01602080910402602001604051908101604052809291908181526020018280546113999061280a565b80156113e65780601f106113bb576101008083540402835291602001916113e6565b820191906000526020600020905b8154815290600101906020018083116113c957829003601f168201915b505050505081526020016005820180546113ff9061280a565b80601f016020809104026020016040519081016040528092919081815260200182805461142b9061280a565b80156114785780601f1061144d57610100808354040283529160200191611478565b820191906000526020600020905b81548152906001019060200180831161145b57829003601f168201915b505050505081526020016006820180546114919061280a565b80601f01602080910402602001604051908101604052809291908181526020018280546114bd9061280a565b801561150a5780601f106114df5761010080835404028352916020019161150a565b820191906000526020600020905b8154815290600101906020018083116114ed57829003601f168201915b505050505081526020016007820160009054906101000a900460ff161515151581526020016007820160019054906101000a900473ffffffffffffffffffffffffffffffffffffffff1673ffffffffffffffffffffffffffffffffffffffff1673ffffffffffffffffffffffffffffffffffffffff168152505090508060200151925080608001519150828294509450505050915091565b60025481565b600a81815481106115b857600080fd5b9060005260206000200160009150905080546115d39061280a565b80601f01602080910402602001604051908101604052809291908181526020018280546115ff9061280a565b801561164c5780601f106116215761010080835404028352916020019161164c565b820191906000526020600020905b81548152906001019060200180831161162f57829003601f168201915b505050505081565b600960003373ffffffffffffffffffffffffffffffffffffffff1673ffffffffffffffffffffffffffffffffffffffff16815260200190815260200160002060009054906101000a900460ff16156116e1576040517f08c379a00000000000000000000000000000000000000000000000000000000081526004016116d890612887565b60405180910390fd5b600160008154809291906116f4906128d6565b919050555060405180610120016040528060015481526020018681526020018581526020018481526020018381526020016040518060400160405280600e81526020017f6e6f745f76616363696e6174656400000000000000000000000000000000000081525081526020018281526020016000151581526020013373ffffffffffffffffffffffffffffffffffffffff16815250600460003373ffffffffffffffffffffffffffffffffffffffff1673ffffffffffffffffffffffffffffffffffffffff168152602001908152602001600020600082015181600001556020820151816001015560408201518160020190816117f19190612aca565b5060608201518160030190816118079190612aca565b50608082015181600401908161181d9190612aca565b5060a08201518160050190816118339190612aca565b5060c08201518160060190816118499190612aca565b5060e08201518160070160006101000a81548160ff0219169083151502179055506101008201518160070160016101000a81548173ffffffffffffffffffffffffffffffffffffffff021916908373ffffffffffffffffffffffffffffffffffffffff1602179055509050506001600960003373ffffffffffffffffffffffffffffffffffffffff1673ffffffffffffffffffffffffffffffffffffffff16815260200190815260200160002060006101000a81548160ff0219169083151502179055506006339080600181540180825580915050600190039060005260206000200160009091909190916101000a81548173ffffffffffffffffffffffffffffffffffffffff021916908373ffffffffffffffffffffffffffffffffffffffff1602179055505050505050565b600960003373ffffffffffffffffffffffffffffffffffffffff1673ffffffffffffffffffffffffffffffffffffffff16815260200190815260200160002060009054906101000a900460ff1615611a04576040517f08c379a00000000000000000000000000000000000000000000000000000000081526004016119fb90612887565b60405180910390fd5b60026000815480929190611a17906128d6565b9190505550600254600560003373ffffffffffffffffffffffffffffffffffffffff1673ffffffffffffffffffffffffffffffffffffffff1681526020019081526020016000206000018190555080600560003373ffffffffffffffffffffffffffffffffffffffff1673ffffffffffffffffffffffffffffffffffffffff1681526020019081526020016000206001019081611ab49190612aca565b506001600960003373ffffffffffffffffffffffffffffffffffffffff1673ffffffffffffffffffffffffffffffffffffffff16815260200190815260200160002060006101000a81548160ff0219169083151502179055506007339080600181540180825580915050600190039060005260206000200160009091909190916101000a81548173ffffffffffffffffffffffffffffffffffffffff021916908373ffffffffffffffffffffffffffffffffffffffff16021790555050565b60015481565b6000600360003373ffffffffffffffffffffffffffffffffffffffff1673ffffffffffffffffffffffffffffffffffffffff1681526020019081526020016000206000015411611bfe576040517f08c379a0000000000000000000000000000000000000000000000000000000008152600401611bf590613124565b60405180910390fd5b6000600460008573ffffffffffffffffffffffffffffffffffffffff1673ffffffffffffffffffffffffffffffffffffffff1681526020019081526020016000206000015411611c83576040517f08c379a0000000000000000000000000000000000000000000000000000000008152600401611c7a90613190565b60405180910390fd5b604051602001611c92906131fc565b6040516020818303038152906040528051906020012082604051602001611cb99190612f29565b604051602081830303815290604052805190602001201480611d245750604051602001611ce59061325d565b6040516020818303038152906040528051906020012082604051602001611d0c9190612f29565b60405160208183030381529060405280519060200120145b80611d785750604051602001611d39906132be565b6040516020818303038152906040528051906020012082604051602001611d609190612f29565b60405160208183030381529060405280519060200120145b611db7576040517f08c379a0000000000000000000000000000000000000000000000000000000008152600401611dae9061331f565b60405180910390fd5b600460008473ffffffffffffffffffffffffffffffffffffffff1673ffffffffffffffffffffffffffffffffffffffff16815260200190815260200160002060070160009054906101000a900460ff168015611e17575060001515811515145b15611e57576040517f08c379a0000000000000000000000000000000000000000000000000000000008152600401611e4e906133b1565b60405180910390fd5b81600460008573ffffffffffffffffffffffffffffffffffffffff1673ffffffffffffffffffffffffffffffffffffffff1681526020019081526020016000206005019081611ea69190612aca565b50600460008473ffffffffffffffffffffffffffffffffffffffff1673ffffffffffffffffffffffffffffffffffffffff16815260200190815260200160002060070160009054906101000a900460ff16611f565780600460008573ffffffffffffffffffffffffffffffffffffffff1673ffffffffffffffffffffffffffffffffffffffff16815260200190815260200160002060070160006101000a81548160ff0219169083151502179055505b505050565b6005602052806000526040600020600091509050806000015490806001018054611f849061280a565b80601f0160208091040260200160405190810160405280929190818152602001828054611fb09061280a565b8015611ffd5780601f10611fd257610100808354040283529160200191611ffd565b820191906000526020600020905b815481529060010190602001808311611fe057829003601f168201915b5050505050905082565b6006818154811061201757600080fd5b906000526020600020016000915054906101000a900473ffffffffffffffffffffffffffffffffffffffff1681565b6008818154811061205657600080fd5b906000526020600020016000915054906101000a900473ffffffffffffffffffffffffffffffffffffffff1681565b6000604051905090565b600080fd5b600080fd5b600073ffffffffffffffffffffffffffffffffffffffff82169050919050565b60006120c482612099565b9050919050565b6120d4816120b9565b81146120df57600080fd5b50565b6000813590506120f1816120cb565b92915050565b60006020828403121561210d5761210c61208f565b5b600061211b848285016120e2565b91505092915050565b6000819050919050565b61213781612124565b82525050565b600081519050919050565b600082825260208201905092915050565b60005b8381101561217757808201518184015260208101905061215c565b60008484015250505050565b6000601f19601f8301169050919050565b600061219f8261213d565b6121a98185612148565b93506121b9818560208601612159565b6121c281612183565b840191505092915050565b60008115159050919050565b6121e2816121cd565b82525050565b6121f1816120b9565b82525050565b60006101208201905061220d600083018c61212e565b61221a602083018b61212e565b818103604083015261222c818a612194565b905081810360608301526122408189612194565b905081810360808301526122548188612194565b905081810360a08301526122688187612194565b905081810360c083015261227c8186612194565b905061228b60e08301856121d9565b6122996101008301846121e8565b9a9950505050505050505050565b600080fd5b600080fd5b7f4e487b7100000000000000000000000000000000000000000000000000000000600052604160045260246000fd5b6122e982612183565b810181811067ffffffffffffffff82111715612308576123076122b1565b5b80604052505050565b600061231b612085565b905061232782826122e0565b919050565b600067ffffffffffffffff821115612347576123466122b1565b5b61235082612183565b9050602081019050919050565b82818337600083830152505050565b600061237f61237a8461232c565b612311565b90508281526020810184848401111561239b5761239a6122ac565b5b6123a684828561235d565b509392505050565b600082601f8301126123c3576123c26122a7565b5b81356123d384826020860161236c565b91505092915050565b6000602082840312156123f2576123f161208f565b5b600082013567ffffffffffffffff8111156124105761240f612094565b5b61241c848285016123ae565b91505092915050565b600060208201905061243a600083018461212e565b92915050565b61244981612124565b811461245457600080fd5b50565b60008135905061246681612440565b92915050565b6000602082840312156124825761248161208f565b5b600061249084828501612457565b91505092915050565b60006020820190506124ae60008301846121e8565b92915050565b60006040820190506124c9600083018561212e565b81810360208301526124db8184612194565b90509392505050565b6000806000606084860312156124fd576124fc61208f565b5b600061250b868287016120e2565b935050602061251c868287016120e2565b925050604084013567ffffffffffffffff81111561253d5761253c612094565b5b612549868287016123ae565b9150509250925092565b600081519050919050565b600082825260208201905092915050565b6000819050602082019050919050565b612588816121cd565b82525050565b600061259a838361257f565b60208301905092915050565b6000602082019050919050565b60006125be82612553565b6125c8818561255e565b93506125d38361256f565b8060005b838110156126045781516125eb888261258e565b97506125f6836125a6565b9250506001810190506125d7565b5085935050505092915050565b6000602082019050818103600083015261262b81846125b3565b905092915050565b6000602082019050818103600083015261264d8184612194565b905092915050565b600080600080600060a086880312156126715761267061208f565b5b600061267f88828901612457565b955050602086013567ffffffffffffffff8111156126a05761269f612094565b5b6126ac888289016123ae565b945050604086013567ffffffffffffffff8111156126cd576126cc612094565b5b6126d9888289016123ae565b935050606086013567ffffffffffffffff8111156126fa576126f9612094565b5b612706888289016123ae565b925050608086013567ffffffffffffffff81111561272757612726612094565b5b612733888289016123ae565b9150509295509295909350565b612749816121cd565b811461275457600080fd5b50565b60008135905061276681612740565b92915050565b6000806000606084860312156127855761278461208f565b5b6000612793868287016120e2565b935050602084013567ffffffffffffffff8111156127b4576127b3612094565b5b6127c0868287016123ae565b92505060406127d186828701612757565b9150509250925092565b7f4e487b7100000000000000000000000000000000000000000000000000000000600052602260045260246000fd5b6000600282049050600182168061282257607f821691505b602082108103612835576128346127db565b5b50919050565b7f596f752061726520616c72656164792072656769737465726564000000000000600082015250565b6000612871601a83612148565b915061287c8261283b565b602082019050919050565b600060208201905081810360008301526128a081612864565b9050919050565b7f4e487b7100000000000000000000000000000000000000000000000000000000600052601160045260246000fd5b60006128e182612124565b91507fffffffffffffffffffffffffffffffffffffffffffffffffffffffffffffffff8203612913576129126128a7565b5b600182019050919050565b60008190508160005260206000209050919050565b60006020601f8301049050919050565b600082821b905092915050565b6000600883026129807fffffffffffffffffffffffffffffffffffffffffffffffffffffffffffffffff82612943565b61298a8683612943565b95508019841693508086168417925050509392505050565b6000819050919050565b60006129c76129c26129bd84612124565b6129a2565b612124565b9050919050565b6000819050919050565b6129e1836129ac565b6129f56129ed826129ce565b848454612950565b825550505050565b600090565b612a0a6129fd565b612a158184846129d8565b505050565b5b81811015612a3957612a2e600082612a02565b600181019050612a1b565b5050565b601f821115612a7e57612a4f8161291e565b612a5884612933565b81016020851015612a67578190505b612a7b612a7385612933565b830182612a1a565b50505b505050565b600082821c905092915050565b6000612aa160001984600802612a83565b1980831691505092915050565b6000612aba8383612a90565b9150826002028217905092915050565b612ad38261213d565b67ffffffffffffffff811115612aec57612aeb6122b1565b5b612af6825461280a565b612b01828285612a3d565b600060209050601f831160018114612b345760008415612b22578287015190505b612b2c8582612aae565b865550612b94565b601f198416612b428661291e565b60005b82811015612b6a57848901518255600182019150602085019450602081019050612b45565b86831015612b875784890151612b83601f891682612a90565b8355505b6001600288020188555050505b505050505050565b7f4f6e6c792070617469656e74732063616e20706572666f726d2074686973206160008201527f6374696f6e000000000000000000000000000000000000000000000000000000602082015250565b6000612bf8602583612148565b9150612c0382612b9c565b604082019050919050565b60006020820190508181036000830152612c2781612beb565b9050919050565b7f4e6f7420612076616c696420646f63746f720000000000000000000000000000600082015250565b6000612c64601283612148565b9150612c6f82612c2e565b602082019050919050565b60006020820190508181036000830152612c9381612c57565b9050919050565b7f4e6f7420612076616c69642061646d696e000000000000000000000000000000600082015250565b6000612cd0601183612148565b9150612cdb82612c9a565b602082019050919050565b60006020820190508181036000830152612cff81612cc3565b9050919050565b7f4170706f696e746d656e742068617320746f2062652061746c6561737420302e60008201527f3031204574686572000000000000000000000000000000000000000000000000602082015250565b6000612d62602883612148565b9150612d6d82612d06565b604082019050919050565b60006020820190508181036000830152612d9181612d55565b9050919050565b7f4e487b7100000000000000000000000000000000000000000000000000000000600052603260045260246000fd5b600081905092915050565b60008190508160005260206000209050919050565b60008154612df48161280a565b612dfe8186612dc7565b94506001821660008114612e195760018114612e2e57612e61565b60ff1983168652811515820286019350612e61565b612e3785612dd2565b60005b83811015612e5957815481890152600182019150602081019050612e3a565b838801955050505b50505092915050565b6000612e768284612de7565b915081905092915050565b7f496e76616c69642074696d6520736c6f74000000000000000000000000000000600082015250565b6000612eb7601183612148565b9150612ec282612e81565b602082019050919050565b60006020820190508181036000830152612ee681612eaa565b9050919050565b600081905092915050565b6000612f038261213d565b612f0d8185612eed565b9350612f1d818560208601612159565b80840191505092915050565b6000612f358284612ef8565b915081905092915050565b7f54696d6520736c6f7420616c726561647920626f6f6b65640000000000000000600082015250565b6000612f76601883612148565b9150612f8182612f40565b602082019050919050565b60006020820190508181036000830152612fa581612f69565b9050919050565b7f596f75206d757374206265207265676973746572656400000000000000000000600082015250565b6000612fe2601683612148565b9150612fed82612fac565b602082019050919050565b6000602082019050818103600083015261301181612fd5565b9050919050565b600081546130258161280a565b61302f8186612eed565b9450600182166000811461304a576001811461305f57613092565b60ff1983168652811515820286019350613092565b6130688561291e565b60005b8381101561308a5781548189015260018201915060208101905061306b565b838801955050505b50505092915050565b60006130a78284613018565b915081905092915050565b7f4f6e6c792061646d696e732063616e20706572666f726d20746869732061637460008201527f696f6e0000000000000000000000000000000000000000000000000000000000602082015250565b600061310e602383612148565b9150613119826130b2565b604082019050919050565b6000602082019050818103600083015261313d81613101565b9050919050565b7f50617469656e74206e6f74207265676973746572656400000000000000000000600082015250565b600061317a601683612148565b915061318582613144565b602082019050919050565b600060208201905081810360008301526131a98161316d565b9050919050565b7f6e6f745f76616363696e61746564000000000000000000000000000000000000600082015250565b60006131e6600e83612eed565b91506131f1826131b0565b600e82019050919050565b6000613207826131d9565b9150819050919050565b7f6f6e655f646f7365000000000000000000000000000000000000000000000000600082015250565b6000613247600883612eed565b915061325282613211565b600882019050919050565b60006132688261323a565b9150819050919050565b7f74776f5f646f7365000000000000000000000000000000000000000000000000600082015250565b60006132a8600883612eed565b91506132b382613272565b600882019050919050565b60006132c98261329b565b9150819050919050565b7f496e76616c69642076616363696e652073746174757300000000000000000000600082015250565b6000613309601683612148565b9150613314826132d3565b602082019050919050565b60006020820190508181036000830152613338816132fc565b9050919050565b7f446561642070617469656e742063616e6e6f74206265206d61726b656420617360008201527f20616c6976650000000000000000000000000000000000000000000000000000602082015250565b600061339b602683612148565b91506133a68261333f565b604082019050919050565b600060208201905081810360008301526133ca8161338e565b905091905056fea2646970667358221220dcff0dff20708dc9471c3bacb54245e4619fb64c2aaad34d174e7078f05dd42a64736f6c63430008100033",
  "immutableReferences": {},
  "source": "// SPDX-License-Identifier: MIT\r\npragma solidity ^0.8.0;\r\n\r\n\r\ncontract PatientManagement {\r\n\r\n\r\n    struct Admin {\r\n        uint id;\r\n        string name;\r\n    }\r\n\r\n    struct Patient {\r\n        uint id;\r\n        uint age;\r\n        string name;\r\n        string gender;\r\n        string district;\r\n        string vaccineStatus;\r\n        string symptomsDetails;\r\n        bool isDead;\r\n        address patientAddress;\r\n    }\r\n\r\n    struct Doctor {\r\n        uint id;\r\n        string name;\r\n        mapping(string => address) appointments; \r\n    }\r\n\r\n    struct DistrictData {\r\n        string districtName;   \r\n        uint childrenCount;    \r\n        uint teenageCount;     \r\n        uint youngCount;       \r\n        uint elderCount;       \r\n        uint childrenPercent;  \r\n        uint teenagePercent;   \r\n        uint youngPercent;     \r\n        uint elderPercent;     \r\n        uint totalPatients;    \r\n        uint medianAge;        \r\n    }\r\n\r\n    uint public adminCount;\r\n    uint public patientCount;\r\n    uint public doctorCount;\r\n\r\n    mapping(address => Admin) public admins;\r\n    mapping(address => Patient) public patients;\r\n    mapping(address => Doctor) public doctors;\r\n\r\n    address[] public patientAddresses;\r\n    address[] public doctorAddresses;\r\n    address[] public adminAddresses;\r\n\r\n    mapping(address => bool) private registeredUsers;\r\n\r\n    string[] public timeSlots = [\r\n        \"4:00 PM - 4:10 PM\", \"4:10 PM - 4:20 PM\", \"4:20 PM - 4:30 PM\", \"4:30 PM - 4:40 PM\",\r\n        \"4:40 PM - 4:50 PM\", \"4:50 PM - 5:00 PM\"\r\n    ];\r\n\r\n    modifier onlyAdmin() {\r\n        require(admins[msg.sender].id > 0, \"Only admins can perform this action\");\r\n        _;\r\n    }\r\n\r\n    modifier onlyPatient() {\r\n        require(patients[msg.sender].id > 0, \"Only patients can perform this action\");\r\n        _;\r\n    }\r\n\r\n    modifier onlyRegisteredUser() {\r\n        require(registeredUsers[msg.sender], \"You must be registered\");\r\n        _;\r\n    }\r\n\r\nconstructor() {\r\n        address hardcodedAdmin = 0x0D2f38cD0F5CB5E52e8701e0378Dfa958AA43cf5;\r\n        adminCount++;\r\n        admins[hardcodedAdmin] = Admin({ id: adminCount, name: \"Contract Deployer\" });\r\n        registeredUsers[hardcodedAdmin] = true;\r\n        adminAddresses.push(hardcodedAdmin);\r\n    }\r\n\r\n    function registerAdmin(string memory name) public {\r\n        require(!registeredUsers[msg.sender], \"You are already registered\");\r\n        adminCount++;\r\n        admins[msg.sender] = Admin({ id: adminCount, name: name });\r\n        registeredUsers[msg.sender] = true;\r\n        adminAddresses.push(msg.sender);\r\n    }\r\n\r\n    function registerPatient(\r\n        uint age,\r\n        string memory name,\r\n        string memory gender,\r\n        string memory district,\r\n        string memory symptomsDetails\r\n    ) public {\r\n        require(!registeredUsers[msg.sender], \"You are already registered\");\r\n        patientCount++;\r\n        patients[msg.sender] = Patient({\r\n            id: patientCount,\r\n            name: name,\r\n            age: age,\r\n            gender: gender,\r\n            district: district,\r\n            vaccineStatus: \"not_vaccinated\",\r\n            symptomsDetails: symptomsDetails,\r\n            isDead: false,\r\n            patientAddress: msg.sender\r\n        });\r\n        registeredUsers[msg.sender] = true;\r\n        patientAddresses.push(msg.sender);\r\n    }\r\n\r\n    function registerDoctor(\r\n        string memory name\r\n    ) public {\r\n        require(!registeredUsers[msg.sender], \"You are already registered\");\r\n        doctorCount++;\r\n        doctors[msg.sender].id = doctorCount;\r\n        doctors[msg.sender].name = name;\r\n\r\n        registeredUsers[msg.sender] = true;\r\n        doctorAddresses.push(msg.sender);\r\n    }\r\n\r\n    function updatePatientData(\r\n        address patientAddress,\r\n        string memory vaccineStatus,\r\n        bool isDead\r\n    ) public onlyAdmin {\r\n        require(patients[patientAddress].id > 0, \"Patient not registered\");\r\n        require(\r\n            keccak256(abi.encodePacked(vaccineStatus)) == keccak256(abi.encodePacked(\"not_vaccinated\")) ||\r\n            keccak256(abi.encodePacked(vaccineStatus)) == keccak256(abi.encodePacked(\"one_dose\")) ||\r\n            keccak256(abi.encodePacked(vaccineStatus)) == keccak256(abi.encodePacked(\"two_dose\")),\r\n            \"Invalid vaccine status\"\r\n        );\r\n        require(\r\n            !(patients[patientAddress].isDead && isDead == false),\r\n            \"Dead patient cannot be marked as alive\"\r\n        );\r\n\r\n        patients[patientAddress].vaccineStatus = vaccineStatus;\r\n        if (!patients[patientAddress].isDead) {\r\n            patients[patientAddress].isDead = isDead;\r\n        }\r\n    }\r\n\r\n    function bookAppointment(address doctorAddress, address adminAddress, string memory timeSlot) public payable onlyPatient {\r\n        require(doctors[doctorAddress].id > 0, \"Not a valid doctor\");\r\n        require(admins[adminAddress].id > 0, \"Not a valid admin\");\r\n        require(msg.value >= 0.01 ether, \"Appointment has to be atleast 0.01 Ether\");\r\n\r\n        bool validSlot = false;\r\n        for (uint i = 0; i < timeSlots.length; i++) {\r\n            if (keccak256(bytes(timeSlots[i])) == keccak256(bytes(timeSlot))) {\r\n                validSlot = true;\r\n                break;\r\n            }\r\n        }\r\n        require(validSlot, \"Invalid time slot\");\r\n\r\n        require(doctors[doctorAddress].appointments[timeSlot] == address(0), \"Time slot already booked\");\r\n\r\n        doctors[doctorAddress].appointments[timeSlot] = msg.sender;\r\n\r\n        payable(adminAddress).transfer(msg.value);\r\n    }\r\n\r\n\r\n    function viewAppointmentSchedule(address doctorAddress) public view onlyRegisteredUser returns (bool[] memory) {\r\n        require(doctors[doctorAddress].id > 0, \"Not a valid doctor\");\r\n\r\n        bool[] memory schedule = new bool[](timeSlots.length);\r\n\r\n        for (uint i = 0; i < timeSlots.length; i++) {\r\n            schedule[i] = (doctors[doctorAddress].appointments[timeSlots[i]] != address(0));\r\n        }\r\n\r\n        return schedule;\r\n    }\r\n\r\n\r\n    function getCovidTrendData(\r\n        address patientAddress\r\n    ) public view onlyRegisteredUser returns (uint, string memory) {\r\n\r\n        uint age;\r\n        string memory district;\r\n\r\n        Patient memory patient = patients[patientAddress];\r\n        age = patient.age;\r\n        district = patient.district;\r\n\r\n        return (age, district);\r\n    }\r\n\r\n}\r\n\r\n",
  "sourcePath": "/home/badhon/Documents/CSE446/HealthCare-dApp/contracts/PatientManagement.sol",
  "compiler": {
    "name": "solc",
    "version": "0.8.16+commit.07a7930e.Emscripten.clang"
  },
  "schemaVersion": "3.4.16",
  "updatedAt": "2025-01-17T11:09:34.457Z",
  "networkType": "ethereum",
  "devdoc": {
    "kind": "dev",
    "methods": {},
    "version": 1
  },
  "userdoc": {
    "kind": "user",
    "methods": {},
    "version": 1
  }
}